:100000000C9434000C9451000C9451000C94510049
:100010000C9451000C9451000C9451000C9451001C
:100020000C9451000C9451000C9451000C9451000C
:100030000C9451000C9451000C9451000C945100FC
:100040000C9451000C9451000C9451000C945100EC
:100050000C9451000C9451000C9451000C945100DC
:100060000C9451000C94510011241FBECFEFD8E026
:10007000DEBFCDBF11E0A0E0B1E0E6E8F2E102C0F2
:1000800005900D92A83EB107D9F722E0A8EEB1E0A5
:1000900001C01D92AF31B207E1F70E94D0010C946C
:1000A00041090C9400000E9437020895FF920F93BB
:1000B0001F93CF93DF93F82E60912A0170912B014B
:1000C00020E042E00E940A0701E010E0C0E0D0E03A
:1000D00010C0F8013197EE0FFF1FEE5DFE4F6081FB
:1000E0007181202F41E08F2D0E940A07E8010F5FE8
:1000F0001F4F033011056CF30EC02C2F2150FE0151
:10010000EE0FFF1FEE5DFE4F608171814CE08F2D81
:100110000E940A072196C430D1057CF323E04FE00A
:100120006EE78F2D0E943A066091200170912101A7
:1001300023E040E18F2D0E940A076091E901709150
:10014000EA0121E046E08F2D0E941B07DF91CF914D
:100150001F910F91FF9008950F931F93CF93C82F76
:10016000162F609120017091210120E042E00E9451
:100170000A07113099F01230B9F01FC0F801319719
:10018000EE0FFF1FE65EFE4F60817181202F41E080
:100190008C2F0E940A070F5F1F4F02C001E010E082
:1001A000033011055CF309C060911E0170911F01BD
:1001B00021E041E08C2F0E940A0720912C01409100
:1001C000E8016EE78C2F0E943A0623E040E16AE5E1
:1001D00071E08C2F0E940A07CF911F910F91089513
:1001E0000F931F93CF93DF93C82FD62F60910E01EB
:1001F00070910F0120E042E00E940A07D23091F195
:1002000018F4D130C1F064C0D33009F443C0D43005
:1002100009F458C05DC0F8013197EE0FFF1FE050A0
:10022000FF4F60817181202F41E08C2F0E940A07CF
:100230000F5F1F4F02C001E010E0033011055CF3B7
:1002400047C0ED2FF0E0EE0FFF1FE050FF4F608141
:100250007181202F41E08C2F0E940A07DF5F0F5F22
:100260001F4F03C001E010E0D2E0033011054CF352
:100270002FC0ED2FF0E0EE0FFF1FE050FF4F608129
:100280007181202F41E08C2F0E940A07DF5F0F5FF2
:100290001F4F03C001E010E0D4E0033011054CF320
:1002A00017C0ED2FF0E0EE0FFF1FE050FF4F608111
:1002B0007181202F41E08C2F0E940A07DF5F0F5FC2
:1002C0001F4F03C001E010E0D5E0033011054CF3EF
:1002D00020912C014091E8016EE78C2F0E943A0694
:1002E00023E040E161ED71E08C2F0E940A07DF916D
:1002F000CF911F910F9108950F931F93CF93DF9389
:10030000C82F162F609118017091190120E042E06A
:100310000E940A07113099F0123041F12DC0F80106
:100320003197EE0FFF1FE05FFE4F60817181202F3C
:1003300041E08C2F0E940A070F5F1F4F02C001E0AF
:1003400010E0033011055CF317C0ED2FF0E0EE0F65
:10035000FF1FE05FFE4F60817181202F41E08C2FF5
:100360000E940A07DF5F0F5F1F4F03C001E010E02C
:10037000D2E0033011054CF320912C014091E801AB
:100380006EE78C2F0E943A0623E040E161ED71E0B8
:100390008C2F0E940A07DF91CF911F910F91089532
:1003A000EEEEF1E087E280838CE390E09093EA0147
:1003B0008093E90181E0818382E0848312828383D8
:1003C0000E9453000E946B028EEE91E00E94640630
:1003D00084E080932D0180912D01823071F018F41A
:1003E000813031F01CC0833071F0843091F017C03F
:1003F0008091EE010E945600EECF62E08091EE0106
:100400000E94AC00E8CF62E08091EE010E947C0186
:10041000E2CF64E08091EE010E94F000DCCFAEEE0E
:10042000B1E01B96ED91FC911C9722E041E06FE555
:1004300071E08C910995CFCF87B1806287B988B17F
:10044000806288B987B18F7D87B988B1806288B9A9
:1004500087B1806187B988B1806188B987B18F7EA3
:1004600087B988B1806188B90E94D10208958FEE62
:100470008093640084B114B885B19FEF95B987B1BA
:10048000807887B988B18F6788B98AB11AB88BB17B
:100490009BB940E060E881E690E00E944B0713BE04
:1004A00015BE0E941C0208950E94B202089507C062
:1004B000EFECF7E03197F1F700C0000001970097EB
:1004C000B9F7089505C022E02A95F1F700C0019719
:1004D0000097C9F70895ECEBF0E0108280E4809378
:1004E000B800A9EBB0E08C918E7F8C938C918D7FBE
:1004F0008C9380818468808380818E7F80838081DB
:100500008F7B80830895880FECEBF0E09081946AF4
:1005100090839091BC009923E4F79091B900987F63
:100520009830A9F48093BB00ECEBF0E080818F7DE4
:1005300080838081846880838091BC008823E4F775
:100540008091B900887F883121F082E0089581E0B0
:10055000089583E00895ECEBF0E080818469808366
:1005600086E00895CF93C62F0E9483028330B9F4AA
:10057000C093BB00ECEBF0E08081846880838091C5
:10058000BC008823E4F78091B900887F883221F08D
:100590000E94AB0285E003C00E94AB0284E0CF91D1
:1005A0000895E4E6F0E080818F77808384E480938F
:1005B000BC0080E28093B8001092B900089568E012
:1005C0000E9454020895CF93DF93D82FC62F6091D5
:1005D000EB016F708C2F807F682B69606093EB015B
:1005E0008D2F0E9454026091EB0161606093EB01DA
:1005F0008D2F0E9454026091EB0164606093EB01C7
:100600008D2F0E94540281E090E00E94620260916E
:10061000EB016B7F6093EB018D2F0E94540288ECFD
:1006200090E00E94620220E1C29FC001112460910B
:10063000EB016F70682B69606093EB018D2F0E9456
:1006400054026091EB0164606093EB018D2F0E9476
:10065000540281E090E00E9462026091EB016B7FA6
:100660006093EB018D2F0E94540282E090E00E9483
:100670005702DF91CF910895FF920F931F93CF936D
:10068000DF93F82E8B01C0E0D0E004C08F2D0E94D4
:10069000E3022196F801EC0FFD1F60816111F6CF96
:1006A000DF91CF911F910F91FF9008950F931F93AA
:1006B000CF93DF93CDB7DEB72A970FB6F894DEBF9E
:1006C0000FBECDBF482F8B01FE0131968AE0DF01BE
:1006D0001D928A95E9F777232CF488279927861BA2
:1006E000970B01C0CB0120E030E001C09D016AE022
:1006F00070E00E941909D9011196E1E0F0E0EC0FD9
:10070000FD1FE20FF31F805D8083862F972F0097D8
:1007100069F7112354F481E090E08C0F9D1FA80F1E
:10072000B91F8DE28C93D9011296CE010196A80FC4
:10073000B91F1C92FC0101900020E9F73197DF01FD
:10074000A81BB90BCD01019720E030E013C0A1E058
:10075000B0E0AC0FBD1FA20FB31F5C91E1E0F0E071
:10076000EC0FFD1FE80FF91F60816C9350832F5F22
:100770003F4F01972817390754F3BE016F5F7F4F32
:10078000842F0E943C032A960FB6F894DEBF0FBE5A
:10079000CDBFDF91CF911F910F9108954F925F923E
:1007A0006F927F928F929F92AF92BF92CF92DF9281
:1007B000EF92FF920F931F93CF93DF93CDB7DEB7E6
:1007C00064970FB6F894DEBF0FBECDBFE82E2A01A6
:1007D0003B01F22EFE01319684E1DF011D928A95E4
:1007E000E9F7BAE0B21720F40F2EFAE0FF2EF02D51
:1007F00020E030E0A901C301B2010E94BF078823B5
:100800003CF453014201B7FAB094B7F8B09402C077
:1008100053014201FF2091F0EF2DF0E0EE0FFF1F9A
:10082000EE0FFF1FE25DFE4F208131814281538137
:10083000C501B4010E9453074B015C01C501B4011D
:100840000E94C4078B01072E000C880B990B0E9495
:10085000FC079B01AC01C501B4010E9452074B018A
:100860005C0101151105C9F480E38983CC24C3948C
:10087000D12C18C0C8016AE070E00E941909E1E0BB
:10088000F0E0EC0FFD1FEC0DFD1D805D8083062F59
:10089000172FC60101966C0102C0C12CD12C011585
:1008A000110541F720E030E0A901C301B2010E9427
:1008B000BF0788235CF4E1E0F0E0EC0FFD1FEC0DD6
:1008C000FD1D8DE28083D60111966D01DE0111962A
:1008D000FD0101900020E9F73197CF018A1B9B0BA6
:1008E000019720E030E013C0A1E0B0E0AC0FBD1FE5
:1008F000A20FB31F4C91E1E0F0E0EC0FFD1FE80FF9
:10090000F91F50815C9340832F5F3F4F0197281759
:10091000390754F3FF20C9F186010F5F1F4FE1E053
:10092000F0E0EC0FFD1FEC0DFD1D8EE2808328C072
:1009300020E030E040E251E4C501B4010E94AC087F
:100940004B015C010E94CB076801BFEFCB1ADB0AA9
:10095000E1E0F0E0EC0FFD1FE00FF11F80E3860FF8
:10096000808370E080E090E00E94FC079B01AC0176
:10097000C501B4010E9452074B015C01F72C8601AE
:1009800077247A947F0CF110D3CFBE016F5F7F4F35
:100990008E2D0E943C0364960FB6F894DEBF0FBE06
:1009A000CDBFDF91CF911F910F91FF90EF90DF901E
:1009B000CF90BF90AF909F908F907F906F905F90FF
:1009C0004F900895CF93DF93D82FC62F607F686034
:1009D0006093EB010E9454026091EB016E7F609383
:1009E000EB018D2F0E9454026091EB0164606093D3
:1009F000EB018D2F0E94540281E090E00E94620280
:100A00006091EB016B7F6093EB018D2F0E9454028C
:100A100088EC90E00E94620220E1C29FC001112494
:100A20006091EB016F70682B68606093EB018D2F14
:100A30000E9454026091EB0164606093EB018D2F82
:100A40000E94540281E090E00E9462028091EB01DA
:100A50008B7F8093EB0182E090E00E945702DF9150
:100A6000CF910895603108F06FE0423008F041E026
:100A7000442319F0413029F008C060680E94E20464
:100A80000895606C0E94E2040895606C0E94E20484
:100A90000895CF93DF93C82FD62F642F422F0E9443
:100AA00032056D2F8C2F0E94E302DF91CF910895C4
:100AB0000F931F93CF93C82F8B01642F422F0E9457
:100AC0003205B8018C2F0E943C03CF911F910F91EA
:100AD00008950F931F93CF93C82F8B01642F422F3C
:100AE0000E943205B8018C2F0E945603CF911F91AE
:100AF0000F9108958F929F92AF92BF92EF920F93B2
:100B0000CF93DF93C82F4A015B01D22F602F4E2D68
:100B10000E9432052D2FB501A4018C2F0E94CE0317
:100B2000DF91CF910F91EF90BF90AF909F908F90FA
:100B30000895623099F028F4662341F0613051F055
:100B400019C0633079F0643089F014C068E00E9405
:100B5000E20408956AE00E94E20408956CE00E94B5
:100B6000E20408956EE00E94E20408956FE00E949E
:100B7000E20408956CE00E94E2040895613051F0AF
:100B800028F0623059F0633069F010C068E20E94CA
:100B9000E20408956CE20E94E204089560E20E947B
:100BA000E204089564E20E94E204089568E20E946B
:100BB000E2040895613091F068F0623019F063301A
:100BC00029F010C066E00E94E204089567E00E94E8
:100BD000E204089564E00E94E204089565E00E9442
:100BE000E204089566E00E94E20408956CE10E9428
:100BF000E204089562E00E94E20408951F93CF93F7
:100C0000DF93182FD0E00CC02D2F4C2F60E2812FE6
:100C10000E944905CF5F01C0C0E0C031A8F3DF5F8B
:100C2000D230D0F3812F0E94FA05DF91CF911F912E
:100C30000895643108F063E1443008F043E0413046
:100C400051F028F0423061F0433079F00895606847
:100C50000E94E2040895605C60680E94E2040895C6
:100C60006C5E60680E94E20408956C5A60680E949D
:100C7000E2040895CF93DF93C82FD62F642F422F1D
:100C80000E9419066D2F8C2F0E94E302DF91CF91F5
:100C900008951F93CF93DF93182FD0E00CC02D2F12
:100CA0004C2F60E2812F0E943A06CF5F01C0C0E066
:100CB000C431A8F3DF5FD430D0F3812F0E94FA054E
:100CC000DF91CF911F910895CF93DF93EC011092A4
:100CD000EB0182E390E00E9457026FEF88810E944F
:100CE000540282E390E00E94570263E388810E94ED
:100CF000E20482E390E00E94620263E388810E9442
:100D0000E20482E390E00E94620262E388810E9432
:100D1000E20482E390E00E9462026A8188810E947C
:100D2000BE0582E390E00E9462026B8188810E948E
:100D3000990582E390E00E9462026C8188810E94A2
:100D4000DA0582E390E00E9457028981811104C094
:100D500088810E94FE0503C088810E94490683EEB7
:100D600092E09E838D838CE393E09A87898786E562
:100D700093E09E878D878EEC93E09A8B898B89E92F
:100D800095E0988F8F8B8EEB95E09A8F898F8AED07
:100D900095E09C8F8B8F86EF95E09E8F8D8F8AEFED
:100DA00095E098A38F8F8FED92E09EA38DA389810C
:100DB000811119C08AE795E09C8B8B8B89E495E0C3
:100DC00098878F8388E595E09C878B8789E695E0F7
:100DD000988B8F8782E395E09E8B8D8B8EEF95E0CD
:100DE00098A78FA314C08CE297E09C8B8B8B8AE32F
:100DF00096E098878F838AE097E09C878B878BE1CA
:100E000097E0988B8F8789E496E098A78FA3DF916E
:100E1000CF9108950F931F93CF93C82F8B01642F09
:100E2000422F0E941906B8018C2F0E943C03CF91DB
:100E30001F910F9108950F931F93CF93C82F8B018C
:100E4000642F422F0E941906B8018C2F0E9456036E
:100E5000CF911F910F9108958F929F92AF92BF9261
:100E6000EF920F93CF93DF93C82F4A015B01D22FEC
:100E7000602F4E2D0E9419062D2FB501A4018C2F35
:100E80000E94CE03DF91CF910F91EF90BF90AF9072
:100E90009F908F9008952FB7F894FC016083408352
:100EA0002FBF08955058BB27AA270E946A070C94A9
:100EB00072080E94640838F00E946B0820F039F430
:100EC0009F3F19F426F40C9461080EF4E095E7FBBB
:100ED0000C945B08E92F0E94830858F3BA17620745
:100EE00073078407950720F079F4A6F50C94A508FC
:100EF0000EF4E0950B2EBA2FA02D0B01B901900135
:100F00000C01CA01A0011124FF27591B99F0593F78
:100F100050F4503E68F11A16F040A22F232F342FC0
:100F20004427585FF3CF469537952795A795F0400E
:100F30005395C9F77EF41F16BA0B620B730B840B23
:100F4000BAF09150A1F0FF0FBB1F661F771F881FDB
:100F5000C2F70EC0BA0F621F731F841F48F4879533
:100F600077956795B795F7959E3F08F0B0CF939525
:100F7000880F08F09927EE0F9795879508950E949E
:100F8000370808F481E008950E94CB076894B111F6
:100F90000C94A60808950E948B0888F09F5798F03B
:100FA000B92F9927B751B0F0E1F0660F771F881F6E
:100FB000991F1AF0BA95C9F714C0B13091F00E9488
:100FC000A508B1E008950C94A508672F782F88270D
:100FD000B85F39F0B93FCCF3869577956795B395AF
:100FE000D9F73EF490958095709561957F4F8F4F1E
:100FF0009F4F0895E89409C097FB3EF49095809523
:10100000709561957F4F8F4F9F4F9923A9F0F92FCE
:1010100096E9BB279395F695879577956795B7954C
:10102000F111F8CFFAF4BB0F11F460FF1BC06F5F32
:101030007F4F8F4F9F4F16C0882311F096E911C044
:10104000772321F09EE8872F762F05C0662371F065
:1010500096E8862F70E060E02AF09A95660F771F79
:10106000881FDAF7880F9695879597F90895990F55
:101070000008550FAA0BE0E8FEEF16161706E80762
:10108000F907C0F012161306E407F50798F0621B83
:10109000730B840B950B39F40A2661F0232B242B58
:1010A000252B21F408950A2609F4A140A6958FEF77
:1010B000811D811D089597F99F6780E870E060E0C9
:1010C00008959FEF80EC089500240A9416161706E1
:1010D00018060906089500240A9412161306140629
:1010E00005060895092E0394000C11F4882352F08C
:1010F000BB0F40F4BF2B11F460FF04C06F5F7F4F44
:101100008F4F9F4F089557FD9058440F551F59F02A
:101110005F3F71F04795880F97FB991F61F09F3FE4
:1011200079F087950895121613061406551FF2CF0D
:101130004695F1DF08C0161617061806991FF1CF5D
:1011400086957105610508940895E894BB27662784
:101150007727CB0197F908950E94BF080C94720875
:101160000E94640838F00E946B0820F0952311F06B
:101170000C945B080C94610811240C94A6080E943E
:10118000830870F3959FC1F3950F50E0551F629F40
:10119000F001729FBB27F00DB11D639FAA27F00DD0
:1011A000B11DAA1F649F6627B00DA11D661F829FF7
:1011B0002227B00DA11D621F739FB00DA11D621FDC
:1011C000839FA00D611D221F749F3327A00D611DF9
:1011D000231F849F600D211D822F762F6A2F1124DB
:1011E0009F5750409AF0F1F088234AF0EE0FFF1F0E
:1011F000BB1F661F771F881F91505040A9F79E3F65
:10120000510580F00C945B080C94A6085F3FE4F352
:10121000983ED4F3869577956795B795F795E795BA
:101220009F5FC1F7FE2B880F911D9695879597F9C3
:10123000089597FB072E16F4009407D077FD09D088
:101240000E942D0907FC05D03EF4909581959F4F93
:101250000895709561957F4F0895AA1BBB1B51E1BE
:1012600007C0AA1FBB1FA617B70710F0A61BB70B16
:10127000881F991F5A95A9F780959095BC01CD01BB
:061280000895F894FFCF71
:101286006F0173019301790187018F019801A10113
:101296006F0193018B018401B201A101BD01B2016D
:1012A600C8016F0193018B018401D6010102000080
:1012B600003FCDCC4C3D0AD7A33B6F12033A17B77C
:1012C6005138ACC5A736BD37063595BF563377CCF2
:1012D600AB315F700930FFE65B2E484F4D45003459
:1012E60030343A2050616765204572726F72005241
:1012F600454400475245454E0057484954455748CE
:101306004954452B5757005245442B47524E0052DD
:1013160045442B424C554500424C55452B47524EB1
:1013260000436F6C6F75722053656C656374696FEB
:101336006E004D616E75616C204D69780042726970
:101346006768746E6573730053455454494E47532A
:10135600204D454E550057656C636F6D6520204CDA
:08136600657469636961000010
:00000001FF
